{"abi":[{"type":"constructor","inputs":[{"name":"_callback_sender","type":"address","internalType":"address"}],"stateMutability":"payable"},{"type":"receive","stateMutability":"payable"},{"type":"function","name":"acknowledgeSwap","inputs":[{"name":"swap_id","type":"bytes32","internalType":"bytes32"}],"outputs":[],"stateMutability":"nonpayable"},{"type":"function","name":"cancelSwap","inputs":[{"name":"swap_id","type":"bytes32","internalType":"bytes32"},{"name":"reason","type":"string","internalType":"string"}],"outputs":[],"stateMutability":"nonpayable"},{"type":"function","name":"completeSwap","inputs":[{"name":"","type":"address","internalType":"address"},{"name":"swap_id","type":"bytes32","internalType":"bytes32"}],"outputs":[],"stateMutability":"nonpayable"},{"type":"function","name":"coverDebt","inputs":[],"outputs":[],"stateMutability":"nonpayable"},{"type":"function","name":"createSwapInfo","inputs":[{"name":"","type":"address","internalType":"address"},{"name":"swap_id","type":"bytes32","internalType":"bytes32"},{"name":"user1","type":"address","internalType":"address"},{"name":"token1","type":"address","internalType":"address"},{"name":"amount1","type":"uint256","internalType":"uint256"},{"name":"token2","type":"address","internalType":"address"},{"name":"amount2","type":"uint256","internalType":"uint256"},{"name":"chain_id1","type":"uint256","internalType":"uint256"},{"name":"chain_id2","type":"uint256","internalType":"uint256"},{"name":"initiated_at","type":"uint256","internalType":"uint256"},{"name":"timeout","type":"uint256","internalType":"uint256"}],"outputs":[],"stateMutability":"nonpayable"},{"type":"function","name":"depositTokens","inputs":[{"name":"swap_id","type":"bytes32","internalType":"bytes32"}],"outputs":[],"stateMutability":"nonpayable"},{"type":"function","name":"getSwapInfo","inputs":[{"name":"swap_id","type":"bytes32","internalType":"bytes32"}],"outputs":[{"name":"","type":"tuple","internalType":"struct GaslessDemoCrossChainAtomicSwapCallback.SwapInfo","components":[{"name":"user1","type":"address","internalType":"address"},{"name":"user2","type":"address","internalType":"address"},{"name":"token1","type":"address","internalType":"address"},{"name":"token2","type":"address","internalType":"address"},{"name":"amount1","type":"uint256","internalType":"uint256"},{"name":"amount2","type":"uint256","internalType":"uint256"},{"name":"chainId1","type":"uint256","internalType":"uint256"},{"name":"chainId2","type":"uint256","internalType":"uint256"},{"name":"state","type":"uint8","internalType":"enum GaslessDemoCrossChainAtomicSwapCallback.SwapState"},{"name":"initiatedAt","type":"uint256","internalType":"uint256"},{"name":"timeout","type":"uint256","internalType":"uint256"}]}],"stateMutability":"view"},{"type":"function","name":"getSwapState","inputs":[{"name":"swap_id","type":"bytes32","internalType":"bytes32"}],"outputs":[{"name":"","type":"uint8","internalType":"enum GaslessDemoCrossChainAtomicSwapCallback.SwapState"}],"stateMutability":"view"},{"type":"function","name":"getUserSwaps","inputs":[{"name":"user","type":"address","internalType":"address"}],"outputs":[{"name":"","type":"bytes32[]","internalType":"bytes32[]"}],"stateMutability":"view"},{"type":"function","name":"initiateSwap","inputs":[{"name":"token1","type":"address","internalType":"address"},{"name":"amount1","type":"uint256","internalType":"uint256"},{"name":"token2","type":"address","internalType":"address"},{"name":"amount2","type":"uint256","internalType":"uint256"},{"name":"chain_id2","type":"uint256","internalType":"uint256"},{"name":"timeout","type":"uint256","internalType":"uint256"}],"outputs":[{"name":"swap_id","type":"bytes32","internalType":"bytes32"}],"stateMutability":"nonpayable"},{"type":"function","name":"isSwapExpired","inputs":[{"name":"swap_id","type":"bytes32","internalType":"bytes32"}],"outputs":[{"name":"","type":"bool","internalType":"bool"}],"stateMutability":"view"},{"type":"function","name":"pay","inputs":[{"name":"amount","type":"uint256","internalType":"uint256"}],"outputs":[],"stateMutability":"nonpayable"},{"type":"function","name":"swaps","inputs":[{"name":"","type":"bytes32","internalType":"bytes32"}],"outputs":[{"name":"user1","type":"address","internalType":"address"},{"name":"user2","type":"address","internalType":"address"},{"name":"token1","type":"address","internalType":"address"},{"name":"token2","type":"address","internalType":"address"},{"name":"amount1","type":"uint256","internalType":"uint256"},{"name":"amount2","type":"uint256","internalType":"uint256"},{"name":"chainId1","type":"uint256","internalType":"uint256"},{"name":"chainId2","type":"uint256","internalType":"uint256"},{"name":"state","type":"uint8","internalType":"enum GaslessDemoCrossChainAtomicSwapCallback.SwapState"},{"name":"initiatedAt","type":"uint256","internalType":"uint256"},{"name":"timeout","type":"uint256","internalType":"uint256"}],"stateMutability":"view"},{"type":"function","name":"updateSwapInfo","inputs":[{"name":"","type":"address","internalType":"address"},{"name":"swap_id","type":"bytes32","internalType":"bytes32"},{"name":"new_state","type":"uint8","internalType":"enum GaslessDemoCrossChainAtomicSwapCallback.SwapState"},{"name":"user2","type":"address","internalType":"address"}],"outputs":[],"stateMutability":"nonpayable"},{"type":"function","name":"userSwaps","inputs":[{"name":"","type":"address","internalType":"address"},{"name":"","type":"uint256","internalType":"uint256"}],"outputs":[{"name":"","type":"bytes32","internalType":"bytes32"}],"stateMutability":"view"},{"type":"event","name":"SwapAcknowledged","inputs":[{"name":"swapId","type":"bytes32","indexed":true,"internalType":"bytes32"},{"name":"user2","type":"address","indexed":true,"internalType":"address"},{"name":"chainId","type":"uint256","indexed":false,"internalType":"uint256"}],"anonymous":false},{"type":"event","name":"SwapCancelled","inputs":[{"name":"swapId","type":"bytes32","indexed":true,"internalType":"bytes32"},{"name":"reason","type":"string","indexed":false,"internalType":"string"},{"name":"chainId","type":"uint256","indexed":false,"internalType":"uint256"}],"anonymous":false},{"type":"event","name":"SwapCompleted","inputs":[{"name":"swapId","type":"bytes32","indexed":true,"internalType":"bytes32"},{"name":"user1","type":"address","indexed":false,"internalType":"address"},{"name":"user2","type":"address","indexed":false,"internalType":"address"},{"name":"chainId","type":"uint256","indexed":false,"internalType":"uint256"}],"anonymous":false},{"type":"event","name":"SwapInfoUpdated","inputs":[{"name":"swapId","type":"bytes32","indexed":true,"internalType":"bytes32"},{"name":"newState","type":"uint8","indexed":false,"internalType":"enum GaslessDemoCrossChainAtomicSwapCallback.SwapState"},{"name":"chainId","type":"uint256","indexed":false,"internalType":"uint256"}],"anonymous":false},{"type":"event","name":"SwapInitiated","inputs":[{"name":"swapId","type":"bytes32","indexed":true,"internalType":"bytes32"},{"name":"user1","type":"address","indexed":true,"internalType":"address"},{"name":"token1","type":"address","indexed":false,"internalType":"address"},{"name":"amount1","type":"uint256","indexed":false,"internalType":"uint256"},{"name":"token2","type":"address","indexed":false,"internalType":"address"},{"name":"amount2","type":"uint256","indexed":false,"internalType":"uint256"},{"name":"chainId1","type":"uint256","indexed":false,"internalType":"uint256"},{"name":"chainId2","type":"uint256","indexed":false,"internalType":"uint256"},{"name":"timeout","type":"uint256","indexed":false,"internalType":"uint256"}],"anonymous":false},{"type":"event","name":"TokensDeposited","inputs":[{"name":"swapId","type":"bytes32","indexed":true,"internalType":"bytes32"},{"name":"user","type":"address","indexed":true,"internalType":"address"},{"name":"token","type":"address","indexed":false,"internalType":"address"},{"name":"amount","type":"uint256","indexed":false,"internalType":"uint256"},{"name":"chainId","type":"uint256","indexed":false,"internalType":"uint256"},{"name":"isUser1","type":"bool","indexed":false,"internalType":"bool"}],"anonymous":false},{"type":"error","name":"AddressEmptyCode","inputs":[{"name":"target","type":"address","internalType":"address"}]},{"type":"error","name":"AddressInsufficientBalance","inputs":[{"name":"account","type":"address","internalType":"address"}]},{"type":"error","name":"FailedInnerCall","inputs":[]},{"type":"error","name":"SafeERC20FailedOperation","inputs":[{"name":"token","type":"address","internalType":"address"}]},{"type":"error","name":"SwapAlreadyCancelled","inputs":[{"name":"swapId","type":"bytes32","internalType":"bytes32"}]},{"type":"error","name":"SwapAlreadyCompleted","inputs":[{"name":"swapId","type":"bytes32","internalType":"bytes32"}]},{"type":"error","name":"SwapAlreadyExists","inputs":[{"name":"swapId","type":"bytes32","internalType":"bytes32"}]},{"type":"error","name":"SwapDoesNotExist","inputs":[{"name":"swapId","type":"bytes32","internalType":"bytes32"}]},{"type":"error","name":"SwapTimedOut","inputs":[{"name":"swapId","type":"bytes32","internalType":"bytes32"}]}],"bytecode":{"object":"0x6080601f611e6138819003918201601f19168301916001600160401b03831184841017609257808492602094604052833981010312608e57516001600160a01b03811690819003608e573360018060a01b031960025416176002558060018060a01b03195f5416175f555f52600160205260405f20600160ff19825416179055604051611dba90816100a78239f35b5f80fd5b634e487b7160e01b5f52604160045260245ffdfe6080604052600436101561001a575b3615610018575f80fd5b005b5f3560e01c80630ab219f61461177157806320eb7d66146115555780632a44e7331461133b5780632d0fc6b4146111ae5780635b676b7714610e185780637444ddfc14610b075780637a90b99014610a7657806387d2d3e614610a1e5780639f4a8b0b1461081e578063b47703351461076a578063c1166232146102be578063c290d69114610289578063db9b6d0614610252578063e9c0c82f1461018b5763eb84e7f20361000e5734610187576020366003190112610187576004355f52600360205261016060405f2060018060a01b038154169060018060a01b036001820154169061017960018060a01b0360028301541660018060a01b036003840154166004840154600585015460068601549160078701549360ff60088901541695600a60098a0154990154996040519b8c5260208c015260408b015260608a0152608089015260a088015260c087015260e08601526101008501906119c3565b610120830152610140820152f35b5f80fd5b34610187576020366003190112610187576004355f526003602052602061024861014060405f206040516101be81611a3e565b81546001600160a01b0390811682526001830154811686830152600283015481166040830152600383015416606082015260048201546080820152600582015460a0820152600682015460c0820152600782015460e0820152600882015461022d9060ff166101008301611a91565b600a6009830154928361012084015201549283910152611ab5565b4211604051908152f35b34610187576020366003190112610187576004355f526003602052602060ff600860405f2001541661028760405180926119c3565bf35b3461018757602036600319011261018757335f5260016020526102b260ff60405f2054166119f9565b61001860043533611bd4565b346101875760c0366003190112610187576102d7611981565b6102df611997565b906001600160a01b0381161561072c576001600160a01b038216156106ee57602435156106a9576064351561066457466084351461061f57610e1060a435101580610610575b156105d95760405160208101903360601b82526001600160601b03198360601b16603482015260243560488201526001600160601b03198460601b166068820152606435607c82015246609c82015260843560bc8201524260dc8201524360fc82015260fc815261039861011c82611a6f565b51902090815f52600360205260ff600860405f2001541660078110156105b2576105c657604051926103c984611a3e565b3384525f602085015260018060a01b038216604085015260018060a01b0381166060850152602435608085015260643560a08501524660c085015260843560e085015260016101008501524261012085015261014084019360a4358552835f52600360205260405f209060018060a01b0360018060a01b03825116166001600160601b0360a01b83541617825560018060a01b03602082015116600183019060018060a01b03166001600160601b0360a01b82541617905560018060a01b03604082015116600283019060018060a01b03166001600160601b0360a01b82541617905560018060a01b03606082015116600383019060018060a01b03166001600160601b0360a01b8254161790556080810151600483015560a0810151600583015560c0810151600683015560e081015160078301556101008101519560078710156105b257610120600a9261052460209960088701611a9d565b0151600984015551910155335f52600484526105438360405f20611ad6565b6040519160018060a01b031682526024358483015260018060a01b03166040820152606435606082015246608082015260843560a082015260a43560c0820152817fc4c6b2254f1c4a4e184fddbb16a1c56ad84bdf45912de2e20172e0904b343d7960e03393a3604051908152f35b634e487b7160e01b5f52602160045260245ffd5b5063349f44e360e21b5f5260045260245ffd5b60405162461bcd60e51b815260206004820152600f60248201526e125b9d985b1a59081d1a5b595bdd5d608a1b6044820152606490fd5b5062093a8060a4351115610325565b60405162461bcd60e51b815260206004820152601960248201527f43616e6e6f742073776170206f6e2073616d6520636861696e000000000000006044820152606490fd5b60405162461bcd60e51b815260206004820152601e60248201527f416d6f756e7432206d7573742062652067726561746572207468616e203000006044820152606490fd5b60405162461bcd60e51b815260206004820152601e60248201527f416d6f756e7431206d7573742062652067726561746572207468616e203000006044820152606490fd5b60405162461bcd60e51b8152602060048201526016602482015275496e76616c696420746f6b656e32206164647265737360501b6044820152606490fd5b60405162461bcd60e51b8152602060048201526016602482015275496e76616c696420746f6b656e31206164647265737360501b6044820152606490fd5b34610187576020366003190112610187576001600160a01b0361078b611981565b165f52600460205260405f20604051806020835491828152019081935f5260205f20905f5b81811061080857505050816107c6910382611a6f565b604051918291602083019060208452518091526040830191905f5b8181106107ef575050500390f35b82518452859450602093840193909201916001016107e1565b82548452602090930192600192830192016107b0565b3461018757604036600319011261018757610837611981565b50602435335f52600160205261085360ff60405f2054166119f9565b805f52600360205260ff600860405f2001541660078110156105b25715610a0c57805f52600360205260ff600860405f2001541660078110156105b2576005146109fa57805f52600360205260ff600860405f2001541660078110156105b2576006146109e857805f52600360205260405f20600881019060ff82541660078110156105b2576004036109a3577f25996b8e017c54246498598a3603332cf2bf351221c37ed1e483a17c2421a98c91600682015446145f1461096f576002820154600183015460048401546109369290916001600160a01b039081169116611b5a565b805460ff19166005179055805460019190910154604080516001600160a01b0393841681529290911660208301524690820152606090a2005b600782015446036109365760038201548254600584015461099e9290916001600160a01b039081169116611b5a565b610936565b60405162461bcd60e51b815260206004820152601d60248201527f426f7468207573657273206d757374206465706f7369742066697273740000006044820152606490fd5b63cce099f160e01b5f5260045260245ffd5b63091217a760e31b5f5260045260245ffd5b631f543b7360e11b5f5260045260245ffd5b3461018757604036600319011261018757610a37611981565b6001600160a01b03165f9081526004602052604090208054602435919082101561018757602091610a67916119d0565b90549060031b1c604051908152f35b34610187575f366003190112610187575f546040516326db15bb60e21b8152306004820152906001600160a01b0316602082602481845afa908115610afc575f91610ac6575b6100189250611bd4565b90506020823d602011610af4575b81610ae160209383611a6f565b8101031261018757610018915190610abc565b3d9150610ad4565b6040513d5f823e3d90fd5b346101875760403660031901126101875760043560243567ffffffffffffffff811161018757366023820112156101875780600401359067ffffffffffffffff821161018757366024838301011161018757825f52600360205260ff600860405f2001541660078110156105b25715610e0557825f52600360205260ff600860405f2001541660078110156105b257600514610df257825f52600360205260ff600860405f2001541660078110156105b257600614610ddf575f83815260036020526040902080546001600160a01b031692903384148015610dc9575b8015610dae575b15610d6957600881019360ff855416600781101590816105b257600381148015610d5c575b610c7b575b877f95fde484395a984e34eebb8c973799c78dfb42fe608582e30e033220b153ec996024606089898c600660ff19825416179055806040519485936040855282604086015201848401375f828201840152466020830152601f01601f19168101030190a2005b600684015446149182610d4a575b5050610d26575b506007810154461480610d09575b917f95fde484395a984e34eebb8c973799c78dfb42fe608582e30e033220b153ec999460249492606094610cdb575b819650839550829450610c15565b60038101546001820154600590920154610d039290916001600160a01b039182169116611b5a565b87610ccd565b509160ff8454169160078310156105b25790929091600414610c9e565b60028201546004830154610d449290916001600160a01b0316611b5a565b85610c90565b9091506105b257600311158780610c89565b505f915060048114610c10565b60405162461bcd60e51b815260206004820152601860248201527f4e6f7420617574686f72697a656420746f2063616e63656c00000000000000006044820152606490fd5b50610dc26009820154600a83015490611ab5565b4211610beb565b5060018101546001600160a01b03163314610be4565b8263cce099f160e01b5f5260045260245ffd5b8263091217a760e31b5f5260045260245ffd5b82631f543b7360e11b5f5260045260245ffd5b3461018757602036600319011261018757600435805f52600360205260ff600860405f2001541660078110156105b25715610a0c57805f52600360205260ff600860405f2001541660078110156105b2576005146109fa57805f52600360205260ff600860405f2001541660078110156105b2576006146109e8575f8181526003602052604090206009810154600a90910154610eb491611ab5565b421161119c57805f52600360205260405f209060018060a01b0382541633145f14611008576008820160ff81541660078110156105b257600203610fc35760068301544603610f7e576002830190610f20600460018060a01b0384541695019485549030903390611b0f565b805460ff19166003179055549154604080516001600160a01b03949094168452602084019190915246908301526001606083015233917ff528889eb6fe3fb8560fd42c69d609d585adb06376da5191d03f2827cbab50fd90608090a3005b60405162461bcd60e51b815260206004820152601d60248201527f57726f6e6720636861696e20666f72207573657231206465706f7369740000006044820152606490fd5b60405162461bcd60e51b815260206004820152601960248201527f53776170206e6f742061636b6e6f776c656467656420796574000000000000006044820152606490fd5b6001820154336001600160a01b039091160361114c576008820160ff81541660078110156105b25760030361110757600783015446036110c2576003830190611065600560018060a01b0384541695019485549030903390611b0f565b805460ff19166004179055549154604080516001600160a01b03949094168452602084019190915246908301525f606083015233917ff528889eb6fe3fb8560fd42c69d609d585adb06376da5191d03f2827cbab50fd90608090a3005b60405162461bcd60e51b815260206004820152601d60248201527f57726f6e6720636861696e20666f72207573657232206465706f7369740000006044820152606490fd5b60405162461bcd60e51b815260206004820152601b60248201527f557365723120686173206e6f74206465706f73697465642079657400000000006044820152606490fd5b60405162461bcd60e51b815260206004820152602260248201527f4f6e6c792073776170207061727469636970616e74732063616e206465706f736044820152611a5d60f21b6064820152608490fd5b635d46824360e01b5f5260045260245ffd5b34610187576020366003190112610187575f6101406040516111cf81611a3e565b8281528260208201528260408201528260608201528260808201528260a08201528260c08201528260e0820152826101008201528261012082015201526004355f52600360205261016060405f206040519061122a82611a3e565b80546001600160a01b03908116835260018201548116602084019081526002830154821660408501908152600384015490921660608501908152600484015460808601908152600585015460a08701908152600686015460c08801908152600787015460e08901908152600888015495979661132b966101008b019692959394939291906112bb9060ff1688611a91565b60098901546101208c01908152600a909901546101408c01908152604080519c516001600160a01b039081168e529b518c1660208e015291518b16918c0191909152905190981660608a01525160808901525160a08801525160c08701525160e0860152516101008501906119c3565b5161012083015251610140820152f35b3461018757608036600319011261018757611354611981565b50602435604435600781101590816101875761136e6119ad565b335f52600160205261138660ff60405f2054166119f9565b835f52600360205260405f20600881019360ff85541660078110156105b2578015918280611549575b156113e9575050505050806113d46040925f516020611d655f395f51905f5294611a9d565b6113e0825180926119c3565b466020820152a2005b5f9261150e576105b2576002851480611501575b1561146e57505060010180546001600160a01b0319166001600160a01b0383161790555f516020611d655f395f51905f5292604092919061143f908390611a9d565b6001600160a01b031680611455575b505b6113d4565b5f52600460205261146884835f20611ad6565b8461144e565b91509150816003841490816114f1575b50156114a1575050806114506040925f516020611d655f395f51905f5294611a9d565b6004831491826114de575b5050905f516020611d655f395f51905f5292816040936114ce575b50506113d4565b6114d791611a9d565b84816114c7565b909291506105b2579060031482826114ac565b90506105b257600281148261147e565b505f9150600181146113fd565b60405162461bcd60e51b815260206004820152601360248201527214ddd85c08191bd95cc81b9bdd08195e1a5cdd606a1b6044820152606490fd5b50505f600186146113af565b3461018757602036600319011261018757600435805f52600360205260ff600860405f2001541660078110156105b25715610a0c57805f52600360205260ff600860405f2001541660078110156105b2576005146109fa57805f52600360205260ff600860405f2001541660078110156105b2576006146109e8575f8181526003602052604090206009810154600a909101546115f191611ab5565b421161119c57805f52600360205260405f20600881019060ff82541660078110156105b25760010361172c57600781015446036116e75780546001600160a01b031633146116a25760010180546001600160a01b03191633908117909155815460ff19166002179091555f908152600460205260409020611673908290611ad6565b604051904682527fa9e34b54a07c1da140f0cbf37fab0bdfbe06fc3d9154760989b1d3b18991d1cf60203393a3005b60405162461bcd60e51b815260206004820152601b60248201527f43616e6e6f742061636b6e6f776c65646765206f776e207377617000000000006044820152606490fd5b60405162461bcd60e51b815260206004820152601e60248201527f57726f6e6720636861696e20666f722061636b6e6f776c6564676d656e7400006044820152606490fd5b60405162461bcd60e51b815260206004820152601b60248201527f53776170206e6f7420696e20696e6974696174656420737461746500000000006044820152606490fd5b34610187576101603660031901126101875761178b611981565b50602435611797611997565b61179f6119ad565b60a4356001600160a01b0381169081900361018757335f5260016020526117cc60ff60405f2054166119f9565b835f52600360205260ff600860405f2001541660078110156105b25761196e57604051926117f984611a3e565b60018060a01b0316835260208301905f8252604084019260018060a01b031683526060840190815260808401608435815260a0850160c435815260c086019060e435825260e0870192610104358452610100880194600186526101208901976101243589526101408a01976101443589528b5f52600360205260405f209a60018060a01b039060018060a01b03905116166001600160601b0360a01b8c5416178b5560018060a01b0390511660018b019060018060a01b03166001600160601b0360a01b82541617905560018060a01b0390511660028a019060018060a01b03166001600160601b0360a01b82541617905560018060a01b03905116600389019060018060a01b03166001600160601b0360a01b825416179055516004880155516005870155516006860155516007850155519160078310156105b257611945600a9360088601611a9d565b516009840155519101555f516020611d655f395f51905f526040805160018152466020820152a2005b8363349f44e360e21b5f5260045260245ffd5b600435906001600160a01b038216820361018757565b604435906001600160a01b038216820361018757565b606435906001600160a01b038216820361018757565b9060078210156105b25752565b80548210156119e5575f5260205f2001905f90565b634e487b7160e01b5f52603260045260245ffd5b15611a0057565b60405162461bcd60e51b8152602060048201526016602482015275417574686f72697a65642073656e646572206f6e6c7960501b6044820152606490fd5b610160810190811067ffffffffffffffff821117611a5b57604052565b634e487b7160e01b5f52604160045260245ffd5b90601f8019910116810190811067ffffffffffffffff821117611a5b57604052565b60078210156105b25752565b9060078110156105b25760ff80198354169116179055565b91908201809211611ac257565b634e487b7160e01b5f52601160045260245ffd5b805468010000000000000000811015611a5b57611af8916001820181556119d0565b819291549060031b91821b915f19901b1916179055565b6040516323b872dd60e01b60208201526001600160a01b039283166024820152929091166044830152606480830193909352918152611b5891611b53608483611a6f565b611c92565b565b60405163a9059cbb60e01b60208201526001600160a01b039092166024830152604480830193909352918152611b5891611b53606483611a6f565b3d15611bcf573d9067ffffffffffffffff8211611a5b5760405191611bc4601f8201601f191660200184611a6f565b82523d5f602084013e565b606090565b90804710611c585780611be5575050565b5f91829160405190611bf8602083611a6f565b83825260208201915f36843751926001600160a01b03165af1611c19611b95565b5015611c2157565b60405162461bcd60e51b815260206004820152600f60248201526e151c985b9cd9995c8819985a5b1959608a1b6044820152606490fd5b60405162461bcd60e51b8152602060048201526012602482015271496e73756666696369656e742066756e647360701b6044820152606490fd5b5f80611cba9260018060a01b03169360208151910182865af1611cb3611b95565b9083611d06565b8051908115159182611ce2575b5050611cd05750565b635274afe760e01b5f5260045260245ffd5b81925090602091810103126101875760200151801590811503610187575f80611cc7565b90611d2a5750805115611d1b57805190602001fd5b630a12f52160e11b5f5260045ffd5b81511580611d5b575b611d3b575090565b639996b31560e01b5f9081526001600160a01b0391909116600452602490fd5b50803b15611d3356fee1843fbf98f26f24413f923f368046512841c3abb69d218be7bf9e5e393e2834a26469706673582212200040117a9356c16623d1840c870823568a59b9f7bd085490e27ed1102c8c8e7964736f6c63430008210033","linkReferences":{}},"methodIdentifiers":{"acknowledgeSwap(bytes32)":"20eb7d66","cancelSwap(bytes32,string)":"7444ddfc","completeSwap(address,bytes32)":"9f4a8b0b","coverDebt()":"7a90b990","createSwapInfo(address,bytes32,address,address,uint256,address,uint256,uint256,uint256,uint256,uint256)":"0ab219f6","depositTokens(bytes32)":"5b676b77","getSwapInfo(bytes32)":"2d0fc6b4","getSwapState(bytes32)":"db9b6d06","getUserSwaps(address)":"b4770335","initiateSwap(address,uint256,address,uint256,uint256,uint256)":"c1166232","isSwapExpired(bytes32)":"e9c0c82f","pay(uint256)":"c290d691","swaps(bytes32)":"eb84e7f2","updateSwapInfo(address,bytes32,uint8,address)":"2a44e733","userSwaps(address,uint256)":"87d2d3e6"},"id":17}