{"abi":[{"type":"constructor","inputs":[{"name":"_swap_initiator_chain_id","type":"uint256","internalType":"uint256"},{"name":"_swap_closer_chain_id","type":"uint256","internalType":"uint256"},{"name":"_swap_initiator_contract","type":"address","internalType":"address"},{"name":"_swap_closer_contract","type":"address","internalType":"address"}],"stateMutability":"payable"},{"type":"receive","stateMutability":"payable"},{"type":"function","name":"coverDebt","inputs":[],"outputs":[],"stateMutability":"nonpayable"},{"type":"function","name":"pay","inputs":[{"name":"amount","type":"uint256","internalType":"uint256"}],"outputs":[],"stateMutability":"nonpayable"},{"type":"function","name":"react","inputs":[{"name":"log","type":"tuple","internalType":"struct IReactive.LogRecord","components":[{"name":"chain_id","type":"uint256","internalType":"uint256"},{"name":"_contract","type":"address","internalType":"address"},{"name":"topic_0","type":"uint256","internalType":"uint256"},{"name":"topic_1","type":"uint256","internalType":"uint256"},{"name":"topic_2","type":"uint256","internalType":"uint256"},{"name":"topic_3","type":"uint256","internalType":"uint256"},{"name":"data","type":"bytes","internalType":"bytes"},{"name":"block_number","type":"uint256","internalType":"uint256"},{"name":"op_code","type":"uint256","internalType":"uint256"},{"name":"block_hash","type":"uint256","internalType":"uint256"},{"name":"tx_hash","type":"uint256","internalType":"uint256"},{"name":"log_index","type":"uint256","internalType":"uint256"}]}],"outputs":[],"stateMutability":"nonpayable"},{"type":"event","name":"Callback","inputs":[{"name":"chain_id","type":"uint256","indexed":true,"internalType":"uint256"},{"name":"_contract","type":"address","indexed":true,"internalType":"address"},{"name":"gas_limit","type":"uint64","indexed":true,"internalType":"uint64"},{"name":"payload","type":"bytes","indexed":false,"internalType":"bytes"}],"anonymous":false},{"type":"event","name":"CallbackSent","inputs":[{"name":"destinationChainId","type":"uint256","indexed":true,"internalType":"uint256"},{"name":"destinationContract","type":"address","indexed":true,"internalType":"address"},{"name":"swapId","type":"bytes32","indexed":true,"internalType":"bytes32"}],"anonymous":false},{"type":"event","name":"Subscribed","inputs":[{"name":"service_address","type":"address","indexed":true,"internalType":"address"},{"name":"_contract","type":"address","indexed":true,"internalType":"address"},{"name":"topic_0","type":"uint256","indexed":true,"internalType":"uint256"}],"anonymous":false}],"bytecode":{"object":"0x610100806040525f90608081610ec3803803809161001d8285610429565b8339810103126104255780516020820151610046606061003f60408601610460565b9401610460565b600280545f80546001600160a01b03191662ffffff908117825590819052600160208190527f82ea04094b91fdbcc6bc700815069948943553fb456ac308389bf83006127735805460ff191690911790553b1560ff166001600160a81b0319909116811763ffffff001791829055608085905260a09390935260c085905260e0919091529015610135575b604051610a0e9081610475823960805181818161019301526106ae015260a0518181816102ee0152818161037e01526107ca015260c051818181610443015281816104f801526106e6015260e0518181816102c3015281816104b7015261079f0152f35b60081c6001600160a01b031690813b15610425576040516305a6aced60e41b815260048101919091526001600160a01b0390921660248301527fc4c6b2254f1c4a4e184fddbb16a1c56ad84bdf45912de2e20172e0904b343d7960448301525f516020610e835f395f51905f52606483018190526084830181905260a48301525f90829060c490829084905af1801561041a57610407575b5060025460805160c051839260081c6001600160a01b03908116929116823b156103ed576040516305a6aced60e41b815260048101929092526001600160a01b031660248201525f516020610ea35f395f51905f5260448201525f516020610e835f395f51905f52606482018190526084820181905260a4820152908290829060c490829084905af180156103c9576103f2575b5060025460a05160e0516001600160a01b039081169260081c1690813b156103ed5783916040519384926305a6aced60e41b8452600484015260248301527fa9e34b54a07c1da140f0cbf37fab0bdfbe06fc3d9154760989b1d3b18991d1cf60448301525f516020610e835f395f51905f5260648301525f516020610e835f395f51905f5260848301525f516020610e835f395f51905f5260a4830152818360c482800301925af180156103c9576103d8575b505060025460a05160e051909183916001600160a01b039081169160081c16803b156103d4576040516305a6aced60e41b815260048101949094526001600160a01b039190911660248401525f516020610ea35f395f51905f5260448401525f516020610e835f395f51905f52606484018190526084840181905260a4840152829060c490829084905af180156103c9576103b1575b80806100d1565b6103bc828092610429565b6103c657806103aa565b80fd5b6040513d84823e3d90fd5b8280fd5b816103e291610429565b6103c657805f610314565b505050fd5b816103fc91610429565b6103c657805f610261565b61041391505f90610429565b5f5f6101cd565b6040513d5f823e3d90fd5b5f80fd5b601f909101601f19168101906001600160401b0382119082101761044c57604052565b634e487b7160e01b5f52604160045260245ffd5b51906001600160a01b03821682036104255756fe608080604052600436101561001c575b50361561001a575f80fd5b005b5f3560e01c9081630d152c2c1461014e575080637a90b990146100bd5763c290d69114610049575f61000f565b346100b95760203660031901126100b957335f52600160205260ff60405f2054161561007b5761001a600435336108a5565b60405162461bcd60e51b8152602060048201526016602482015275417574686f72697a65642073656e646572206f6e6c7960501b6044820152606490fd5b5f80fd5b346100b9575f3660031901126100b9575f546040516326db15bb60e21b8152306004820152906001600160a01b0316602082602481845afa908115610143575f9161010d575b61001a92506108a5565b90506020823d60201161013b575b816101286020938361056a565b810103126100b95761001a915190610103565b3d915061011b565b6040513d5f823e3d90fd5b346100b95760203660031901126100b95760043567ffffffffffffffff81116100b957806004019161018060031983360301126100b95760ff600254161561052a57507f00000000000000000000000000000000000000000000000000000000000000008235818114806104e9575b1561037857505060448101357fc4c6b2254f1c4a4e184fddbb16a1c56ad84bdf45912de2e20172e0904b343d798103610345575080610207606460e09301359360c48301906105a0565b90809391810103126100b95760c08261022261032f946105d3565b61022e604083016105d3565b6040516305590cfb60e11b6020808301919091525f6024830152604482018990526001600160a01b0360849788013581166064840152938416968201969096529483013560a48601521660c4840152606081013560e4840152608081013561010484015260a08101356101248401524261014484015201356101648083019190915281526102be6101848261056a565b6040517f00000000000000000000000000000000000000000000000000000000000000006001600160a01b0316927f000000000000000000000000000000000000000000000000000000000000000092620f424092859285925f5160206109b95f395f51905f529291829182610619565b0390a45f5160206109995f395f51905f525f80a4005b7ff528889eb6fe3fb8560fd42c69d609d585adb06376da5191d03f2827cbab50fd91501461036f57005b61001a90610835565b929091927f000000000000000000000000000000000000000000000000000000000000000014806104a8575b6103aa57005b60448301357fa9e34b54a07c1da140f0cbf37fab0bdfbe06fc3d9154760989b1d3b18991d1cf810361047257505061032f90620f424060648401359360405190632a44e73360e01b60208301525f602483015285604483015260026064830152608460018060a01b039101351660848201526084815261042b60a48261056a565b825f5160206109b95f395f51905f5260018060a01b037f00000000000000000000000000000000000000000000000000000000000000001695869360405191829182610619565b9092507ff528889eb6fe3fb8560fd42c69d609d585adb06376da5191d03f2827cbab50fd91501461049f57005b61001a90610643565b506104b560248401610556565b7f00000000000000000000000000000000000000000000000000000000000000006001600160a01b039081169116146103a4565b506104f660248401610556565b7f00000000000000000000000000000000000000000000000000000000000000006001600160a01b039081169116146101bd565b62461bcd60e51b8152602060048201526007602482015266564d206f6e6c7960c81b6044820152606490fd5b356001600160a01b03811681036100b95790565b90601f8019910116810190811067ffffffffffffffff82111761058c57604052565b634e487b7160e01b5f52604160045260245ffd5b903590601e19813603018212156100b9570180359067ffffffffffffffff82116100b9576020019181360383136100b957565b35906001600160a01b03821682036100b957565b91908260809103126100b9576105fc826105d3565b916020810135916060604083013592013580151581036100b95790565b602060409281835280519182918282860152018484015e5f828201840152601f01601f1916010190565b61066161065960608301359260c08101906105a0565b8101906105e7565b925050506108325761080b604051632a44e73360e01b60208201525f6024820152826044820152600460648201525f6084820152608481526106a460a48261056a565b82610715620f42407f000000000000000000000000000000000000000000000000000000000000000093845f5160206109b95f395f51905f5260018060a01b037f00000000000000000000000000000000000000000000000000000000000000001694859360405191829182610619565b0390a4604051639f4a8b0b60e01b60208201525f602482015260448082018490528152620f424090829085905f5160206109b95f395f51905f529061076b9061075f60648261056a565b60405191829182610619565b0390a4604051639f4a8b0b60e01b60208201525f6024820152604480820184905281529261079a60648561056a565b6040517f00000000000000000000000000000000000000000000000000000000000000006001600160a01b0316957f000000000000000000000000000000000000000000000000000000000000000095620f424092889288925f5160206109b95f395f51905f529291829182610619565b0390a45f5160206109995f395f51905f525f80a45f5160206109995f395f51905f525f80a4565b50565b61084b61065960608301359260c08101906105a0565b92505050156108325761088f604051632a44e73360e01b60208201525f6024820152826044820152600360648201525f6084820152608481526102be60a48261056a565b0390a45f5160206109995f395f51905f525f80a4565b81471061095e57816108b5575050565b5f8091602093604051906108c9868361056a565b83825285820191601f19870136843751926001600160a01b03165af13d15610959573d67ffffffffffffffff811161058c5760405190610912601f8201601f191685018361056a565b81525f833d92013e5b156109235750565b6064906040519062461bcd60e51b82526004820152600f60248201526e151c985b9cd9995c8819985a5b1959608a1b6044820152fd5b61091b565b60405162461bcd60e51b8152602060048201526012602482015271496e73756666696369656e742066756e647360701b6044820152606490fdfe16ba655625f4326ed9abfe3056c9d054202e3fd74d619ddcb9f96f162d69ce258dd725fa9d6cd150017ab9e60318d40616439424e2fade9c1c58854950917dfca2646970667358221220d4cdf86b38fa7e8953049710bcdbb10f7ae2b547d2733c1e02687f8c2989600564736f6c63430008210033a65f96fc951c35ead38878e0f0b7a3c744a6f5ccc1476b313353ce31712313adf528889eb6fe3fb8560fd42c69d609d585adb06376da5191d03f2827cbab50fd","linkReferences":{}},"methodIdentifiers":{"coverDebt()":"7a90b990","pay(uint256)":"c290d691","react((uint256,address,uint256,uint256,uint256,uint256,bytes,uint256,uint256,uint256,uint256,uint256))":"0d152c2c"},"id":18}